:020000040000FA
:10000000C8090020D5000000EF000000AD08000086
:1000100000000000000000000000000000000000E0
:10002000000000000000000000000000F3000000DD
:100030000000000000000000F5000000670900005B
:100040000909000011090000190900002509000034
:10005000D5040000BD0B0000DD0B0000E90B000023
:10006000E1080000E908000039090000410900002A
:10007000BD080000C5080000A50B0000AD0B000086
:10008000B50B0000D5080000C50B0000CD0B00002B
:10009000D50B0000F9080000EF0C0000310900004A
:1000A000C104000001090000DB0C0000E30C0000AB
:1000B000F1080000CD080000DD040000CD040000C0
:1000C0000348854600F0C2F900480047B304000029
:1000D000C809002009480A4A002100A1814200D92C
:1000E0000244084802600848804708480047FEE785
:1000F000FEE7FEE7FEE7FEE7FEE700000000002067
:100100000000000008ED00E0650B0000C1000000E9
:1001100030B50B46014600202022012409E00D469F
:10012000D5409D4205D31D469540491B2546954027
:1001300040191546521E002DF1DC30BD70B500246B
:100140002546002801DA01244042002901DA012570
:100150004942FFF7DDFFAC4200D04042002C00D006
:10016000494270BD03460B439B0703D009E008C911
:10017000121F08C0042AFAD203E00B780370401C57
:10018000491C521EF9D27047D2B201E00270401CE5
:10019000491EFBD270470022F6E710B513460A4607
:1001A00004461946FFF7F0FF204610BD421C0178B7
:1001B000401C0029FBD1801A704710B5002200E0D6
:1001C000521C835C8C5CA34201D1002BF8D1D8B2C5
:1001D000E1B2401A10BD30B504460020034600E0ED
:1001E0005B1C934203D2E05CCD5C401BF8D030BD79
:1001F0000321001D401E037812021A43491EF9D53F
:1002000010467047F8B502464A40D40F42004B00F2
:1002100052085B089A4202D20246084611464A003A
:1002200023D0C30D4A00DDB2120EAD1A202D35DAEF
:1002300049020126490AF6058A19002C00D05242CB
:1002400020214F1B1146B9402A411018C20D9A4275
:1002500021D0002C17D0012D08DCDA05801AD20F2E
:100260008019D207DBB200F0B7F8F8BDDA05801AC2
:10027000012340001B06C01880185A428018CA0F7C
:100280001043490007E04908C2071143DA05801A04
:1002900080194008801800F097F8F8BD610001222D
:1002A000511A001BF7E70122D2075140AAE70122A9
:1002B000D2075040A6E770B502464A40D50F40002D
:1002C0004A00ED0740085208002814D0002A12D036
:1002D000C40DD30D41020120C0055202490A520A41
:1002E000E41A091812187D34914201D3641C00E00D
:1002F0004900002C01DA002070BD0023914201D397
:10030000891A0343400849000028F7D100290AD080
:10031000914202D10121C90705E0914201D2012198
:1003200001E00121C943E005C018401900F04CF874
:1003300070BD10B500229623114600F04DF810BD97
:10034000410040020122400AD205090E80187F298F
:1003500001DA00207047962903DC9622511AC84022
:100360007047963988407047F0B51FB406460020A4
:1003700082B005464024019100901BE0019922467D
:100380000F46304600F084F8049A059B801A994184
:1003900010D310461946224600F06AF8361A8F41EB
:1003A0000197224601200021009F00F061F83818D3
:1003B0004D4100902046641E0028DFDC019B009820
:1003C0002946324607B0F0BD002904DA401C490036
:1003D00001D140084000704770B40024050C05D1DD
:1003E0001024000402D1002921D01124050E01D1CE
:1003F00000020834050F01D10001241D850F01D131
:100400008000A41C002801DB4000641C002908D0E7
:1004100020252E1B0D46F540A14000D00121294387
:10042000084301061B1B000ADB1D02D5002070BC1F
:100430007047DB05181880180029F8DA401C4900BD
:10044000F5D170BC4008400070470000064C012503
:10045000064E05E0E36807CC2B430C3C984710346C
:10046000B442F7D3FFF730FED4260000F426000094
:1004700010B5202A04DB0146203A9140002010BD2F
:10048000914020239C1A0346E3401943904010BD3D
:1004900010B5202A04DB0846203AD040002110BDC8
:1004A0000B46D340D0402024A21A9140084319465D
:1004B00010BD10B500F056FB01F048FE002010BD45
:1004C00010B5C046C046C046C04610BD10B5C046B7
:1004D000C04610BD10B5C046C04610BD10B5C046E0
:1004E000C046C046C04610BD06480749C862074816
:1004F000C862002008630348C8620448C86200203C
:10050000486370475A5A000000000240A5A5000049
:1005100008B50246002326480090C011824202D945
:100520000423184608BD2248009006E00098411EAA
:100530000091002801D10920F4E71E48006AC00696
:10054000C00F0028F2D100F03BF81948009012E0EB
:100550000098411E009100280BD017481549C86229
:100560001648C8620846006A80088000801C08623D
:1005700001E00920D6E70F48006A8007800F0228B3
:10058000E6D1002010700A48009006E00098411E55
:100590000091002801D10920C4E70648006AC0067E
:1005A000C00F0028F2D1FFF79FFF1846BAE70000FE
:1005B000FFFFFF00000002405A5A0000A5A50000FE
:1005C00007480849C8620848C8620020C043086359
:1005D0000348C8620448C8620020C04348637047AB
:1005E0005A5A000000000240A5A5000018B50246B6
:1005F0000B46002425480090C011824202D90424F1
:10060000204618BD2148009006E00098411E009148
:10061000002801D10920F4E71D48006AC006C00F78
:100620000028F2D11948009012E00098411E009174
:1006300000280BD017481649C8621748C8620846F8
:10064000006A80088000401C086201E00920D8E7A9
:100650000F48006A8007800F0128E6D1FFF7B0FF3E
:1006600013700A48009006E00098411E009100288F
:1006700001D10920C5E70648006AC006C00F00285E
:10068000F2D1FFF731FF2046BBE70000FFFFFF007C
:10069000000002405A5A0000A5A5000018B5024605
:1006A0000B46002425480090C011824202D9042440
:1006B000204618BD2148009006E00098411E009198
:1006C000002801D10920F4E71D48006AC006C00FC8
:1006D0000028F2D11948009012E00098411E0091C4
:1006E00000280BD017481649C8621748C862084648
:1006F000006A80088000401C086201E00920D8E7F9
:100700000F48006A8007800F0128E6D1FFF758FFE5
:1007100013800A48009006E00098411E00910028CE
:1007200001D10920C5E70648006AC006C00F0028AD
:10073000F2D1FFF7D9FE2046BBE70000FFFFFF0024
:10074000000002405A5A0000A5A5000018B5024654
:100750000B46002425480090C011824202D904248F
:10076000204618BD2148009006E00098411E0091E7
:10077000002801D10920F4E71D48006AC006C00F17
:100780000028F2D1FFF71CFF1848009012E00098F3
:10079000411E009100280BD016481549C862164822
:1007A000C8620846006A80088000401C086201E0B8
:1007B0000920D6E70E48006A8007800F0128E6D19D
:1007C00013600A48009006E00098411E009100283E
:1007D00001D10920C5E70648006AC006C00F0028FD
:1007E000F2D1FFF781FE2046BBE70000FFFFFF00CC
:1007F000000002405A5A0000A5A5000070B504464A
:100800000E461546214960180022314600F09CF83A
:1008100000201F496118B20088502A781B49091F1F
:100820006018314600F090F86A7818490C39601861
:10083000314600F089F8AA78144910316018314621
:1008400000F082F8EA78114914316018314600F05E
:100850007BF82A790D4918316018314600F074F898
:100860006A790A4920316018314600F06DF809486C
:1008700080680121C9038843A979C9030122D203F1
:100880001140084303498860002070BD0C0D0240F0
:10089000000C0240000F024010B503460248181831
:1008A0008C000251002010BD000C024008B5002051
:1008B000009000BF00980028FCD008BD10B5C046CD
:1008C000C04610BD10B5C046C04610BD10B5C046EC
:1008D000C04610BD10B5C046C046C046C04610BD9B
:1008E00010B5C046C04610BD10B5C046C04610BDCC
:1008F00010B5C046C04610BD10B5C046C04610BDBC
:1009000010B5C046C04610BD10B5C046C04610BDAB
:1009100010B5C046C04610BD10B5C046C046C04662
:10092000C04610BD10B5C046C046C046C04610BD4A
:1009300010B5C046C04610BD10B5C046C04610BD7B
:1009400010B5C046C04610BD10B5012A05D10368D8
:1009500001248C402343036004E0036801248C409D
:10096000A343036010BD10B5C046C04610BD0000D3
:1009700030B589B000241422564904A8FFF7F2FBD1
:1009800054481430006803900020009001900290B9
:1009900051480188684601814F4841886846C180B6
:1009A0004D488188684681804B48C18868464180AF
:1009B00049482030018868460180484800680006A0
:1009C000450F2B0000F0D0F905042E303E41780091
:1009D0004248C0684005400D69460989884201D1F6
:1009E000089C1EE03D48C0684005400D6946C98826
:1009F000884201D1079C14E03848C0684005400D8A
:100A000069468988884201D1069C0AE03348C0685B
:100A10004005400D69464988884201D1059C00E0A7
:100A2000049C4BE02E4C49E0684600882B494969FC
:100A30008905890D884202D16846C48901E068466B
:100A400084893BE00124E40338E02448C06B80073C
:100A5000800F032829D1684600892049C9684905C3
:100A6000490D884201D1089C20E06846C0881B4996
:100A7000C9684905490D884201D1079C16E06846BE
:100A800080881649C9684905490D884201D1069CEC
:100A90000CE0684640881149C9684905490D8842FB
:100AA00001D1059C02E0049C00E00D4C0B48C06B9A
:100AB000C005000F444301E0002400BF00BF074809
:100AC00000684005410F2046C8400446204609B052
:100AD00030BD000054260000000C10000020004033
:100AE0000048E80110B50024FFF742FF044604481F
:100AF0000068C004810F2046C8400446204610BD4F
:100B00000020004070B504460D46202020400028FB
:100B100014D020212046884304462A4621460B480B
:100B2000FFF712FF032C02D1094805700CE00848BA
:100B3000027803210548FFF707FF05E02A46214612
:100B40000248001FFFF700FF002070BD2420004076
:100B50000400002010B5FFF70BFF0149086010BD2D
:100B60000000002010B50D4949888805800D0C490A
:100B70004969890A89020143094A516107492039B3
:100B800009894805400D1146C968C90AC9020143CF
:100B9000D160FFF7DFFF00F0AFF810BD200C1000B0
:100BA0000020004010B5C046C04610BD10B5C0467C
:100BB000C04610BD10B5C046C04610BD10B5C046F9
:100BC000C04610BD10B5C046C04610BD10B5C046E9
:100BD000C04610BD10B5C046C04610BD10B5C046D9
:100BE000C046C046C04610BD10B5C046C046C0464F
:100BF000C04610BD70B504460D4600222946204669
:100C00001430FFF7A1FE002070BD70B504460D46FC
:100C100001222946201DFFF797FE002070BD70B508
:100C200004460D4601222946201DFFF78DFE0020B7
:100C300070BD0000F0B585B005460C46012721497E
:100C400003C90491039000200290002C02D10420DB
:100C500005B0F0BD00206860608861780843A18815
:100C600008432178084368602078402802D0207823
:100C7000C02824D1A088C117C90D091849128900BC
:100C800003AA515A8EB2E168B1400846FFF751FB02
:100C90000190A068FFF74DFB00900199FFF70BFB57
:100CA00002903F2109060298FFF7ACFA0190FFF786
:100CB00047FB80B2A86104212846FFF7A6FF002762
:100CC0003846C5E76C26000002461068000A00029C
:100CD000CBB2184310600020704710B5C046C04624
:100CE00010BD10B5C046C046C046C04610BD10B5C8
:100CF000C046C04610BD00000E49086A096A0122BC
:100D00001207914389180B4A11620B49C9680B4AB3
:100D10001140094AD16011460968B0221143064AC0
:100D200011601146096AB0221143034A1162014958
:100D30000862704700200040401D02404FFF000045
:100D40000FB410B504A9074B02AA039800F06AF982
:100D5000044602A9002000F0EBFA204610BC08BCB3
:100D600004B018473113000030B47446641E25786F
:100D7000641CAB4204D3635D5B00E31830BC1847CE
:100D80001D46F8E70EB507460E46154619491AA046
:100D900001F0D0F91749384601F0CCF915491CA0EB
:100DA00001F0C8F91349304601F0C4F911491AA0FD
:100DB00001F0C0F903AC0021601E044601700A2155
:100DC000601E044601700CE00A212846FFF7B6F9C0
:100DD0003031601E044601700A212846FFF7AEF943
:100DE0000546002DF0DC0349204601F0A3F900F090
:100DF0008EFB0000E80000202A2A2A206173736518
:100E00007274696F6E206661696C65643A200000D7
:100E10002C2066696C6520002C206C696E652000B2
:100E200002E008C8121F08C1002AFAD170477047B3
:100E3000002001E001C1121F002AFBD1704770B5EC
:100E400003461546002400220EE00124002007E09E
:100E50001E5CFF2E01D0002400E000BF461CB0B293
:100E60008842F5DB501CC2B2022AEEDB204670BD80
:100E7000F8B505460C4600261DE008222146284606
:100E8000FFF7A9F9002800D013E020460830FFF74B
:100E9000AFF90746607921790002084302463946D6
:100EA00028460830FFF797F9002801D10120F8BD46
:100EB00000BF701CC6B2022EDFDB0020F7E713B5BF
:100EC0000C4601F084F82146009801F06BF801F01F
:100ED0007CF801201CBD70B504460D46002601F0CB
:100EE00076F82946204601F05DF8064601F06DF8D7
:100EF000304670BDF0B587B00446A18A626892683A
:100F00005002FFF705F9461E454903C906910590B1
:100F10004349083103C9049103900027002002903F
:100F2000002543E0A18A6802FFF7F2F8074603981C
:100F3000B84201D3002D01D1039700E035E0002035
:100F4000019016E00398B04200D915E003A92046AD
:100F500000F0D6F902900298032800D10CE0039823
:100F6000401C03900020C04304900198401CC0B274
:100F7000019001980328E5DB00BF04990698884298
:100F800007D30698401C00280BD10498401C002869
:100F900007D00498401C002803D0039805900498BB
:100FA00006900020C043049000BF6D1C60688068FC
:100FB000A842B7D80698401C00282DD0A18A01204D
:100FC0004002FFF7A5F805994018451C0598401CFC
:100FD000039019E003A9204600F092F902900298CC
:100FE00003280BD10498401C002807D006990498C8
:100FF000884202D30498069000E00BE00398401C5E
:1010000003900020C04304900398B04202D203989A
:10101000A842DFD300BF00BF069807B0F0BD0000B4
:1010200074260000FFB58FB00F460446002606E088
:1010300025280AD0129A11999047641C761C2078B2
:101040000028F5D1304613B0F0BD00250121A14A9A
:10105000009500E00543641C23780846203B984037
:101060001042F7D120782E2815D10420054360784E
:10107000641C2A280AD101CF641C00900BE000995F
:101080000A22514330394018641C009020780146F0
:1010900030390929F3D920786C280ED004DC4C288B
:1010A00013D06A2812D104E074280ED07A280DD10A
:1010B0000BE001204005054307E0012109056278A6
:1010C0000D43824201D16D18641C641C2078864651
:1010D00069284AD008DC0028B4D058286DD063288D
:1010E00010D0642808D140E070286BD0732812D04B
:1010F000752860D0782860D0129A70461199904770
:10110000761CE5E03878694608720020487202A82B
:101110000190012003E0386801900020C0433F1D8A
:1011200069070CD5002500E06D1C00998D420FDA8F
:101130008542F9DB0199495D0029F5D108E00025D8
:1011400000E06D1C8542FCDB0199495D0029F8D166
:10115000761907E0019801990078491C0191129ACB
:10116000119990476D1EF5D2B2E00A20029000213D
:101170006802400F039102280CD001CFC1178446AA
:1011800000290DDA62460846524200218141944608
:101190002D2008E0FF1DFF08FF0003CF8446EFE786
:1011A000280504D52B206A46107401203CE0E8078E
:1011B0003AD02020F7E70A2000E010200021039118
:1011C000029007E01020029000210420054308202F
:1011D000039100906802400F022810D001CF002137
:1011E000844600200D9028071FD5704670280CD02B
:1011F000029A1020039B42401A430CD015E0FF1DB9
:10120000FF08FF0003CF8446EBE740206A461074D6
:1012100001200D900CE06046084306D030206A465D
:1012200010747046507402200D907046582804D0F7
:1012300029A001900DA80E900DE02CA0F9E76046C2
:10124000039B029AFFF790F8019B84469B5C0E9AE1
:10125000521E0E92137060460843F0D10E9805A9F5
:10126000081A20300190680701D5009801E001209C
:1012700000900199884203DD01460198081A00E0B8
:1012800000200025009006E004A8129A405D119904
:1012900090476D1C761C0D988542F5DB04E0129A90
:1012A000302011999047761C0099481E0090002923
:1012B000F5DC08E00E980E990078491C0E91129A00
:1012C00011999047761C0199481E01900029F1DC84
:1012D000641CB4E609280100303132333435363726
:1012E0003839616263646566000000003031323372
:1012F0003435363738394142434445460000000012
:1013000070B505460C462846216800F0F6F90646F9
:101310003146284600F000FB60606068401C0028F1
:1013200001D0032070BD0020C04360600220F9E7B7
:101330000A68531C0B60107070470000F0B503463C
:101340000020002418E01C785B1C002A01D01470D7
:10135000521C2502684000250CE00126F6030640D9
:10136000002E04D04600074F7E40B0B201E0460494
:10137000300C6D1C082DF0DB0D46491E002DE2D10E
:10138000F0BD000021100000F7B50D46144600F036
:101390001EFE57E000988007800F002822D1042C01
:1013A00020DB2646E017800F80198003020C2946B7
:1013B000009800F03DFE2046E117890F09188910BA
:1013C00089004D19E117890F091889108900009AC1
:1013D00089180091E117890F091889108900611A8D
:1013E0008CB22FE00098C007C00F00281ED1022C3D
:1013F0001CDB2646E00F8019C003020C294600982A
:1014000000F0FAFD2046E10F0918491049004D1976
:10141000E10F091849104900009A89180091E10F5D
:10142000091849104900611A8CB20BE001222946C3
:10143000009800F0CEFD6D1C0098401C0090601ECE
:1014400084B200BF002CA5D100F0BFFD0120FEBD7D
:10145000F3B583B00C46617922790902114308463D
:1014600000F088F9064600BF00F0B1FD08222146D1
:101470000398FFF789FF039808300390002E0FD1DF
:1014800020460830FEF7B4FE054660792179000257
:101490000843024629460398FFF776FF074631E0E6
:1014A0000020029060792179000208430121891B04
:1014B000401A85B220460830FEF79AFE2A460146B9
:1014C00001900398FFF760FF20460830FEF790FE7A
:1014D000401901906079217900020843421B02A85B
:1014E0000199FEF73FFE20460830FEF781FE01908D
:1014F0000399491908462A4603910199FFF744FFC9
:10150000074600BF00F061FD384605B0F0BD00BFE2
:10151000FEE7000010B50248006800F05CFC10BD5A
:10152000E000002010B50C480078012800D110BD63
:10153000192303222321C90208A000F075FC0849E1
:10154000086008460068002800D1F0E70120024941
:10155000087000BFEBE70000E4000020300000004E
:10156000E000002010B50248006800F042FC10BD09
:10157000E000002010B50248006800F048FC10BDF3
:10158000E0000020F8B506460C461746002C01D1B5
:101590000020F8BDA2B23B4631460548006800F085
:1015A000E3FC0546A54201D00020F2E72846F0E71B
:1015B000E000002070B506460C46002C01D100204A
:1015C00070BDA2B231460548006800F0E9FB05464F
:1015D000A54201D00020F3E72846F1E7E000002013
:1015E000FFB585B005460C461E46686840686968C8
:1015F000896849024018A98A0919884203D2002043
:10160000C04309B0F0BD00200490471E0190029035
:1016100003900E9803900798019068460681002277
:10162000062101A800F02CFD0146684641810022F8
:1016300031460E9800F024FD01466846408908189E
:1016400081B26846418168684068A04203D0E005E5
:10165000C00D002809D1A88A0019001B400A401CAF
:1016600081B22046FFF737FC14E0600AA98A091905
:10167000490A88420ED2600A401C40020090A88AA3
:1016800002190098101A400A401C81B20098FFF716
:1016900022FC00BF002000901BE001A92046FFF7BC
:1016A000D7FE01A92046049AFFF7E2FB002801D0EB
:1016B000374611E03046083081B22046049AFFF7E1
:1016C000BEFB002801D1471E06E00098401CC0B2B6
:1016D000009000980228E0DB00BF781C00280AD1A7
:1016E000FF22D243082101A8FEF74EFD082201A9DE
:1016F0002046FFF749FE384683E7FEB504460D460F
:1017000000200190A18A626892685002FEF700FDF5
:1017100007463946681CFEF7FBFC06463946681C3E
:10172000FEF7F6FC0091002E04D0012E06D10098A1
:10173000002803D1A08A6843019016E0002E09D04A
:101740000098002806D030467843281AA18A4843DA
:1017500001900AE0012E08D90098002805D1701EDA
:101760007843281AA18A484301906068416801982B
:101770000818FEBD70B50546002D00D005E0FF221B
:10178000473206A115A0FFF7FDFA0024002C01D175
:10179000002070BD0120001BC0B2FAE7433A5C474D
:1017A00069745265706F7369746F72795C437963A1
:1017B0006C65466C6173685C6379636C65666C61CB
:1017C00073685C7372635C6366735F73797374656B
:1017D0006D5F6D656D6F72792E6300006461746179
:1017E0005F73697A6520213D20300000FEB5044614
:1017F0000D4600200290681C002800D1FEBDA18A81
:10180000626892685002FEF783FC06463146681C07
:10181000FEF77EFC01913146681CFEF779FC00283A
:1018200002D00198002801D1681CE7E76068806851
:10183000012819D929462046FFF75FFFA18A4018E1
:101840000090009A520A521C520263685B68D01AD8
:10185000A18AFEF75DFC371A7F1E3146681CFEF731
:1018600057FC7818029001E0019802900298C5E7B1
:1018700010B504466268128991B262685068FFF739
:101880001EFB012010BD7047F0B585B00E46144612
:101890001D4600200190029003900027009035E043
:1018A00021462846FEF777FC002001900290039025
:1018B0000822314601A8FEF755FC0022062101A8A6
:1018C00000F0DEFB074668460089A04207DC684658
:1018D0000089002803D00198401C002800D111E0A5
:1018E000684601892A463046083000F0C9FBC01915
:1018F00087B268464089B84203D16846008905B07E
:10190000F0BD00BF0098401CC0B2009000980228B3
:10191000C6DB0020C043F2E7FEB504460D460020BA
:10192000009001900290002600272FE000200090F8
:1019300001900290082229466846FEF713FC002217
:101940000621684600F09CFB064668468088616870
:101950008989884207DC68468088002803D000987F
:10196000401C002800D10FE06846818800222846EC
:10197000083000F085FB801986B26846C088B04206
:1019800001D10098FEBD00BF781CC7B2022FCDDB8D
:101990000020C043F6E7FEB504460E4615466068D3
:1019A0008089A84202DA0020C043FEBD0027FF4321
:1019B0000A21C943E068884203D2E068401CE06025
:1019C00010E0E068401C002801D1E0600AE00A2134
:1019D000C943E068884205D92046FFF749FF002047
:1019E000E06020616068807B002812D12046E168B9
:1019F000FFF783FE019000962B46E268204601998E
:101A0000FFF7EEFD07462046E168FFF7EFFE206195
:101A100000E000BF3846C8E7FFB581B01F46019817
:101A2000FEF7C4FB401C009000F05EFD0646002E51
:101A300008D100D004E0E4222DA13DA0FFF7A2F9D7
:101A400000BFFEE70198FEF7B1FB401C0246009084
:101A500030460199FEF786FB102000F045FD054653
:101A6000002D08D100D004E0E92221A133A0FFF726
:101A700089F900BFFEE72E60029868600398A860AD
:101A8000AF810A98A873182000F02EFD0446002CA0
:101A900008D100D004E0F32215A12BA0FFF772F9C2
:101AA00000BFFEE72B48006820602A480460A6605B
:101AB00065600020C043E060002020613846FFF7E9
:101AC00059FEA98908314018A082A08AA968490254
:101AD000884200D205E0FF22023205A11E48FFF72E
:101AE00051F9A08AFFF7CFFE284605B0F0BD0000EF
:101AF000433A5C4769745265706F7369746F7279A9
:101B00005C4379636C65466C6173685C6379636C94
:101B100065666C6173685C7372635C6366735F7344
:101B2000797374656D5F6D6964646C652E63000024
:101B30006E616D655F707472000000006366735FB4
:101B40006F626A65637400006366735F6C697374C7
:101B500000000000DC00002084260000F3B50646EB
:101B600017480068002801D10120FCBD1448006816
:101B700001683246019840028019431E1CE0486803
:101B80004468486840684F68BF687F02C019451EB6
:101B9000AA4201D8A3420BD29C4201D8954207D257
:101BA000A24201D8AB4203D2944203D89D4201D352
:101BB0000020DAE7096800BF0029E0D10120D4E75E
:101BC000DC000020FEB504460D4616461F46E068C0
:101BD000401C002802D02069A84202D20020C04345
:101BE000FEBDE068411B2046FFF787FD01903346AC
:101BF0003A4620460199FFF747FE00900098401CA6
:101C0000002803D139463046FEF7C5FA0098E7E7C9
:101C100070B50546002D00D005E0FF222B3212A141
:101C200021A0FFF7AFF82868002800D005E0FF22C8
:101C30002C320DA120A0FFF7A5F825480068002848
:101C400000D170BD2248046808E029686268106805
:101C5000FEF7B3FA002800D102E02468002CF4D18A
:101C600000BF2046EDE70000433A5C4769745265C7
:101C7000706F7369746F72795C4379636C65466CDD
:101C80006173685C6379636C65666C6173685C73CF
:101C900072635C6366735F73797374656D5F6D699E
:101CA00064646C652E6300006F626A656374202152
:101CB0003D204E554C4C00006F626A6563742D3EAA
:101CC0006E616D6520213D204E554C4C000000009A
:101CD000DC0000200146002901D1401E7047C86881
:101CE000FCE70146002900D170470869FCE70000C5
:101CF000F8B505462846FFF78BFF0446002C02D0B6
:101D0000002D00D005E0FF220F320BA11AA0FFF733
:101D100039F80026F6430027A87B002808D1204682
:101D2000FFF7E8F8064631462046FFF75FFD074615
:101D3000E66027610120F8BD433A5C47697452654B
:101D4000706F7369746F72795C4379636C65466C0C
:101D50006173685C6379636C65666C6173685C73FE
:101D600072635C6366735F73797374656D5F6D69CD
:101D700064646C652E6300006C6973745F6F626AE3
:101D80006563745F707472213D4E554C4C2026265D
:101D9000206F626A656374213D4E554C4C00000013
:101DA000F8B504460D4616462046FFF731FF0746B4
:101DB000002C05D0002D03D0002E01D0002F02D121
:101DC0000020C043F8BD324629463846FFF7E3FD00
:101DD00000900098F6E770B505462846FFF718FF13
:101DE0000446002C00D170BD204600F03DF90120D2
:101DF000F9E770B505462846FFF70AFF0446002CB0
:101E000001D1401E70BD2046FFF764FFFAE770B5B0
:101E100005462846FFF7FCFE0446002C00D170BDA5
:101E20002046FFF75EFFFAE7FFB583B006460F4690
:101E3000154600200290002E00D004E039221EA199
:101E40002DA0FEF79FFF3046FEF7B0F90A2800D21A
:101E500004E03B2218A12CA0FEF794FF2946384647
:101E6000FFF77CFE00280ED129463846FFF776FEA4
:101E7000002800D004E041220FA12BA0FEF782FF32
:101E8000002007B0F0BD0298AAB200903946304653
:101E9000069BFFF7C1FD0446002C08D100D004E0EA
:101EA0004A2205A12CA0FEF76DFF0020E9E720469D
:101EB000FFF71EFF2046E4E7433A5C47697452652A
:101EC000706F7369746F72795C4379636C65466C8B
:101ED0006173685C6379636C65666C6173685C737D
:101EE00072635C6379636C655F666C6173685F7372
:101EF000797374656D2E63006E616D6520213D20E0
:101F00004E554C4C000000007374726C656E286E68
:101F1000616D6529203C204346535F4E414D455F2E
:101F20004C454E5F4D4158006366735F6D69646454
:101F30006C655F636865636B5F616464726573732E
:101F400028616464726573732C20736563746F72A7
:101F50005F636F756E7429006F626A6563745F6892
:101F6000616E646C65000000FEB506460C461546C1
:101F70001F463046FFF74CFE0190002E06D0002C85
:101F800004D0002D02D00198002802D10020C043C7
:101F9000FEBD2B46224639460198FFF713FE0090FE
:101FA0000098F5E773B50D46002400BF09E000BFB7
:101FB0006102009A8818FEF7ABFA0028F8D1601C7D
:101FC00084B2AC42F3DB01207CBD012070470120CC
:101FD0007047F7B50C461546002609E021780098B1
:101FE000FEF704FB0098401C0090641C701C86B235
:101FF000AE42F3DB0120FEBD77B581B00C4615463D
:102000000020009000260EE021786846017061787B
:10201000417001880198FEF741FB0198801C0190F6
:10202000A41C701C86B2AE42EEDB012004B070BD71
:1020300077B581B00E4614460020009000250EE0D2
:10204000042231466846FEF78DF800990198FEF7A4
:102050007DFB0198001D0190361D681C85B2A542CC
:10206000EEDB012004B070BD10B504460020C04373
:10207000E060002020612046FFF7FAFB012010BD40
:10208000F8B504460D461646002732462946204636
:10209000FFF754F907463846F8BD10B50A46014621
:1020A000002900D110BD02E000230B70491C13462B
:1020B000521E002BF8D100BFF4E7000070B50546B2
:1020C000114812494861002088610520086110E02C
:1020D00000200E4988617D21C9000D480068FEF787
:1020E00017F8012109060C1A00BF08488069A042B0
:1020F000FBD828466D1E0028EAD104480069400834
:1021000040000249086170BDFFFFFF0000E000E0F1
:102110000000002070B505460C460548844203D1F6
:10212000284600F017FA70BD0020C043FBE700000E
:10213000E800002070B50D46044602E02946FFF78E
:10214000E9FF2078641C0028F8D170BDF8B500259F
:10215000002600F05BFA00F013FAFFF7E3F978A12C
:102160008448FEF7EDFD8348FEF720F8401C84B25A
:102170002146804800F0F0F9FFF7F4F90546FFF733
:10218000F9F9064633462A467BA17A48FEF7D8FD80
:102190007848FEF70BF8401C84B22146754800F0E1
:1021A000DBF97CA17348FEF7CBFD7248FDF7FEFF1B
:1021B000401C84B221466F4800F0CEF96421844867
:1021C000FDF7E9FF73A16B48FEF7BAFD6948FDF71B
:1021D000EDFF401C84B22146664800F0BDF90024A2
:1021E00033E000207B49086064217948FDF7D3FF84
:1021F00019217948FFF7DEF9002804D1072177A0DB
:1022000000F0AAF920E0FFF7ADF90546FFF7B2F9B3
:1022100006467048006833462A4672A10090554829
:10222000FEF78EFD5348FDF7C1FF401C87B23946CB
:10223000504800F091F974480068401C72490860E9
:102240001E2C00D100BF00BF641C3C2CC9DB6FA159
:102250004848FEF775FD4748FDF7A8FF401C84B2CB
:102260002146444800F078F9FFF77CF90546FFF76E
:1022700081F9064633462A4672A13E48FEF760FDC4
:102280003C48FDF793FF401C84B22146394800F0DA
:1022900063F900242DE000207149086004214C48B6
:1022A000FDF779FF04213348FDF775FF2246192118
:1022B0004748FFF767F9002804D1072147A000F03D
:1022C0004BF915E000204249487608462A1B009049
:1022D000634864A103682748FEF732FD2548FDF7EF
:1022E00065FF401C87B23946224800F035F900BF2F
:1022F000641CB442CFD363A11E48FEF721FD1D48E4
:10230000FDF754FF401C84B221461A4800F024F91E
:10231000FFF700F9002804D069A11648FEF710FD68
:1023200003E06CA11348FEF70BFD1248FDF73EFFDA
:10233000401C84B221460F4800F00EF90020F8BD81
:102340002323232320494E49542D2D2D2D2D2D2D72
:102350002D2D2D2D2D2D2D2D2D2D2D2D2D2D2D2DAD
:102360002D2D2D2D2D2D2D2D2D2D2D2D2D2D2D0DBD
:102370000A000000580100204944203D2025753AFC
:102380002056414C49445F4944203D202575200D8D
:102390000A00000023232323205752495445204696
:1023A0004C4153482D2D2D2D2D2D2D2D2D2D2D2DE9
:1023B0002D2D2D2D2D2D2D2D2D2D2D2D2D2D2D2D4D
:1023C0002D2D2D2D2D2D2D2D2D2D0D0A0000000034
:1023D000F40000200C000020140000204E554C4C4E
:1023E0000D0A00004944203D2025753B2056414CF4
:1023F00049445F4944203D2025753B2041444452D7
:10240000203D2025580D0A001000002023232323FF
:10241000205245414420464C4153482D2D2D2D2D11
:102420002D2D2D2D2D2D2D2D2D2D2D2D2D2D2D2DDC
:102430002D2D2D2D2D2D2D2D2D2D2D2D2D2D2D2DCC
:102440002D0D0A004944203D2025753A2056414C67
:1024500049445F4944203D2025750D0A00000000D5
:10246000080000204944203D2025752C204144448B
:1024700052203D20255820424F44593A20257320B0
:102480000D0A00002323232320434C4541522046BC
:102490004C4153482D2D2D2D2D2D2D2D2D2D2D2DF8
:1024A0002D2D2D2D2D2D2D2D2D2D2D2D2D2D2D2D5C
:1024B0002D2D2D2D2D2D2D2D2D2D0D0A0000000043
:1024C0003E3E3E20434C45415220535543434553E5
:1024D000530D0A003E3E3E20434C454152204641AA
:1024E000494C5552450D0A00F0B50B30C108C900E2
:1024F000144F0026144A0FE003688B420BD38B4223
:1025000005D95C1A4318456830C3083B00E04368AE
:10251000136002C004E0021D10680028ECD13046B0
:10252000002803D13868002801D00020F0BD064AF9
:1025300006481060064A121AD208D20044C0012090
:102540003860D7E7F0000020EC000020CC0100202C
:10255000C805002000BE704770B504460D46002631
:102560000AE0217801208007FEF7AEFB641C012001
:10257000FFF7A4FD701C86B2AE42F2DB70BD000016
:102580001FB510216846FFF788FD01210020FEF7E6
:10259000B9FA402168460170002141804B21C901F0
:1025A0000391012149028180FEF79CFA029069465D
:1025B00001208007FEF73EFB002101208007FEF787
:1025C00019FB01218807FEF715FB00210120800778
:1025D000FEF725FB01218807FEF721FB0A4800785A
:1025E00001280FD0002008494860FF200130FFF784
:1025F0007BFF0549486048680C21FDF7CCFD0120B0
:10260000014908701FBD0000BC0100201CB5072156
:102610006846FFF742FD01211C20FEF773FA0021F6
:10262000684641706A4609210020FEF7E7F801225A
:1026300009210020FEF730F90121684641706A4601
:102640000A210020FEF7DAF801220A210020FEF715
:1026500023F91CBD00093D0000127A000024F4009B
:102660004086510100366E01008000960400000093
:102670000300000000000000FFFFFFFF000000005B
:10268000FFFFFFFF6366735F6C6973742D3E6461C7
:1026900074615F6275666665725F73697A65203C16
:1026A00020286366735F6F626A6563742D3E73658D
:1026B00063746F725F636F756E742A4346535F462F
:1026C0004C4153485F534543544F525F53495A4519
:1026D00029000000F426000000000020F4000000A3
:1026E000200E0000E8270000F4000020D4080000BD
:1026F000300E000000093D00000000000000000056
:1027000000000000000000006162636465666720ED
:1027100073646620202020000000000000000000FC
:1027200000000000000000000000000000000000A9
:102730000000000000000000000000000000000099
:102740000000000000000000000000000000000089
:102750000000000000000000000000000000000079
:102760000000000000000000000000007120207741
:1027700020206520206120207320206400000000BC
:102780000000000000000000000000000000000049
:102790000000000000000000000000000000000039
:1027A0000000000000000000000000000000000029
:1027B0000000000000000000000000000000000019
:1027C0000000000000000000000000000000000009
:1027D00000000000000000000000000000000000F9
:0827E0000000000000000000F1
:04000005000000C136
:00000001FF
