:020000040000FA
:10000000F80A0020D5000000EF000000DD07000026
:1000100000000000000000000000000000000000E0
:10002000000000000000000000000000F3000000DD
:100030000000000000000000F5000000970800002C
:100040003908000041080000490800005508000078
:1000500003040000ED0A00000D0B0000190B000066
:10006000110800001908000069080000710800006C
:10007000ED070000F5070000D50A0000DD0A0000CA
:10008000E50A000005080000F50A0000FD0A00006E
:10009000050B0000290800001F0C0000610800008B
:1000A000EF030000310800000B0C0000130C0000EF
:1000B00021080000FD0700000B040000FB03000006
:1000C0000348854600F07AF900480047E103000044
:1000D000F80A002009480A4A002100A1814200D9FB
:1000E0000244084802600848804708480047FEE785
:1000F000FEE7FEE7FEE7FEE7FEE700000000002067
:100100000000000008ED00E0950A0000C1000000BA
:1001100030B50B46014600202022012409E00D469F
:10012000D5409D4205D31D469540491B2546954027
:1001300040191546521E002DF1DC30BD70B500246B
:100140002546002801DA01244042002901DA012570
:100150004942FFF7DDFFAC4200D04042002C00D006
:10016000494270BD03460B439B0703D009E008C911
:10017000121F08C0042AFAD203E00B780370401C57
:10018000491C521EF9D27047D2B201E00270401CE5
:10019000491EFBD270470022F6E710B513460A4607
:1001A00004461946FFF7F0FF204610BD421C0178B7
:1001B000401C0029FBD1801A704730B5044600204E
:1001C000034600E05B1C934203D2E05CCD5C401B25
:1001D000F8D030BDF8B502464A40D40F42004B007B
:1001E00052085B089A4202D20246084611464A006B
:1001F00023D0C30D4A00DDB2120EAD1A202D35DA20
:1002000049020126490AF6058A19002C00D05242FB
:1002100020214F1B1146B9402A411018C20D9A42A5
:1002200021D0002C17D0012D08DCDA05801AD20F5E
:100230008019D207DBB200F087F8F8BDDA05801A22
:10024000012340001B06C01880185A428018CA0FAC
:100250001043490007E04908C2071143DA05801A34
:1002600080194008801800F067F8F8BD610001228D
:10027000511A001BF7E70122D2075140AAE70122D9
:10028000D2075040A6E770B502464A40D50F40005D
:100290004A00ED0740085208002814D0002A12D066
:1002A000C40DD30D41020120C0055202490A520A71
:1002B000E41A091812187D34914201D3641C00E03D
:1002C0004900002C01DA002070BD0023914201D3C7
:1002D000891A0343400849000028F7D100290AD0B1
:1002E000914202D10121C90705E0914201D20121C9
:1002F00001E00121C943E005C018401900F01CF8D5
:1003000070BD10B500229623114600F01DF810BDF7
:10031000410040020122400AD205090E80187F29BF
:1003200001DA00207047962903DC9622511AC84052
:100330007047963988407047002904DA401C49000C
:1003400001D140084000704770B40024050C05D16D
:100350001024000402D1002921D01124050E01D15E
:1003600000020834050F01D10001241D850F01D1C1
:100370008000A41C002801DB4000641C002908D078
:1003800020252E1B0D46F540A14000D00121294318
:10039000084301061B1B000ADB1D02D5002070BCB0
:1003A0007047DB05181880180029F8DA401C49004E
:1003B000F5D170BC4008400070470000064C012594
:1003C000064E05E0E36807CC2B430C3C98471034FD
:1003D000B442F7D3FFF778FEDC2C0000FC2C0000C1
:1003E00010B500F057FB02F0E3F8002010BD10B587
:1003F000C046C046C046C04610BD10B5C046C04647
:1004000010BD10B5C046C04610BD10B5C046C046B0
:10041000C046C04610BD000006480749C8620748EC
:10042000C862002008630348C8620448C86200200C
:10043000486370475A5A000000000240A5A500001A
:1004400008B50246002326480090C011824202D916
:100450000423184608BD2248009006E00098411E7B
:100460000091002801D10920F4E71E48006AC00667
:10047000C00F0028F2D100F03BF81948009012E0BC
:100480000098411E009100280BD017481549C862FA
:100490001648C8620846006A80088000801C08620E
:1004A00001E00920D6E70F48006A8007800F022884
:1004B000E6D1002010700A48009006E00098411E26
:1004C0000091002801D10920C4E70648006AC0064F
:1004D000C00F0028F2D1FFF79FFF1846BAE70000CF
:1004E000FFFFFF00000002405A5A0000A5A50000CF
:1004F00007480849C8620848C8620020C04308632A
:100500000348C8620448C8620020C043486370477B
:100510005A5A000000000240A5A5000018B5024686
:100520000B46002425480090C011824202D90424C1
:10053000204618BD2148009006E00098411E009119
:10054000002801D10920F4E71D48006AC006C00F49
:100550000028F2D11948009012E00098411E009145
:1005600000280BD017481649C8621748C8620846C9
:10057000006A80088000401C086201E00920D8E77A
:100580000F48006A8007800F0128E6D1FFF7B0FF0F
:1005900013700A48009006E00098411E0091002860
:1005A00001D10920C5E70648006AC006C00F00282F
:1005B000F2D1FFF731FF2046BBE70000FFFFFF004D
:1005C000000002405A5A0000A5A5000018B50246D6
:1005D0000B46002425480090C011824202D9042411
:1005E000204618BD2148009006E00098411E009169
:1005F000002801D10920F4E71D48006AC006C00F99
:100600000028F2D11948009012E00098411E009194
:1006100000280BD017481649C8621748C862084618
:10062000006A80088000401C086201E00920D8E7C9
:100630000F48006A8007800F0128E6D1FFF758FFB6
:1006400013800A48009006E00098411E009100289F
:1006500001D10920C5E70648006AC006C00F00287E
:10066000F2D1FFF7D9FE2046BBE70000FFFFFF00F5
:10067000000002405A5A0000A5A5000018B5024625
:100680000B46002425480090C011824202D9042460
:10069000204618BD2148009006E00098411E0091B8
:1006A000002801D10920F4E71D48006AC006C00FE8
:1006B0000028F2D1FFF71CFF1848009012E00098C4
:1006C000411E009100280BD016481549C8621648F3
:1006D000C8620846006A80088000401C086201E089
:1006E0000920D6E70E48006A8007800F0128E6D16E
:1006F00013600A48009006E00098411E009100280F
:1007000001D10920C5E70648006AC006C00F0028CD
:10071000F2D1FFF781FE2046BBE70000FFFFFF009C
:10072000000002405A5A0000A5A5000070B504461A
:100730000E461546214960180022314600F09CF80B
:1007400000201F496118B20088502A781B49091FF0
:100750006018314600F090F86A7818490C39601832
:10076000314600F089F8AA781449103160183146F2
:1007700000F082F8EA78114914316018314600F02F
:100780007BF82A790D4918316018314600F074F869
:100790006A790A4920316018314600F06DF809483D
:1007A00080680121C9038843A979C9030122D203C2
:1007B0001140084303498860002070BD0C0D0240C1
:1007C000000C0240000F024010B503460248181802
:1007D0008C000251002010BD000C024008B5002022
:1007E000009000BF00980028FCD008BD10B5C0469E
:1007F000C04610BD10B5C046C04610BD10B5C046BD
:10080000C04610BD10B5C046C046C046C04610BD6B
:1008100010B5C046C04610BD10B5C046C04610BD9C
:1008200010B5C046C04610BD10B5C046C04610BD8C
:1008300010B5C046C04610BD10B5C046C04610BD7C
:1008400010B5C046C04610BD10B5C046C046C04633
:10085000C04610BD10B5C046C046C046C04610BD1B
:1008600010B5C046C04610BD10B5C046C04610BD4C
:1008700010B5C046C04610BD10B5012A05D10368A9
:1008800001248C402343036004E0036801248C406E
:10089000A343036010BD10B5C046C04610BD0000A4
:1008A00030B589B000241422564904A8FFF75AFC39
:1008B000544814300068039000200090019002908A
:1008C00051480188684601814F4841886846C18087
:1008D0004D488188684681804B48C1886846418080
:1008E0004948203001886846018048480068000671
:1008F000450F2B0000F0D0F905042E303E41780062
:100900004248C0684005400D69460989884201D1C6
:10091000089C1EE03D48C0684005400D6946C988F6
:10092000884201D1079C14E03848C0684005400D5A
:1009300069468988884201D1069C0AE03348C0682C
:100940004005400D69464988884201D1059C00E078
:10095000049C4BE02E4C49E0684600882B494969CD
:100960008905890D884202D16846C48901E068463C
:1009700084893BE00124E40338E02448C06B80070D
:10098000800F032829D1684600892049C968490594
:10099000490D884201D1089C20E06846C0881B4967
:1009A000C9684905490D884201D1079C16E068468F
:1009B00080881649C9684905490D884201D1069CBD
:1009C0000CE0684640881149C9684905490D8842CC
:1009D00001D1059C02E0049C00E00D4C0B48C06B6B
:1009E000C005000F444301E0002400BF00BF0748DA
:1009F00000684005410F2046C8400446204609B023
:100A000030BD0000942B0000000C100000200040BE
:100A10000048E80110B50024FFF742FF04460448EF
:100A20000068C004810F2046C8400446204610BD1F
:100A30000020004070B504460D46202020400028CC
:100A400014D020212046884304462A4621460B48DC
:100A5000FFF712FF032C02D1094805700CE008488B
:100A6000027803210548FFF707FF05E02A462146E3
:100A70000248001FFFF700FF002070BD2420004047
:100A80000400002010B5FFF70BFF0149086010BDFE
:100A90000000002010B50D4949888805800D0C49DB
:100AA0004969890A89020143094A51610749203984
:100AB00009894805400D1146C968C90AC9020143A0
:100AC000D160FFF7DFFF00F0AFF810BD200C100081
:100AD0000020004010B5C046C04610BD10B5C0464D
:100AE000C04610BD10B5C046C04610BD10B5C046CA
:100AF000C04610BD10B5C046C04610BD10B5C046BA
:100B0000C04610BD10B5C046C04610BD10B5C046A9
:100B1000C046C046C04610BD10B5C046C046C0461F
:100B2000C04610BD70B504460D4600222946204639
:100B30001430FFF7A1FE002070BD70B504460D46CD
:100B400001222946201DFFF797FE002070BD70B5D9
:100B500004460D4601222946201DFFF78DFE002088
:100B600070BD0000F0B585B005460C46012721494F
:100B700003C90491039000200290002C02D10420AC
:100B800005B0F0BD00206860608861780843A188E6
:100B900008432178084368602078402802D02078F4
:100BA000C02824D1A088C117C90D0918491289008D
:100BB00003AA515A8EB2E168B1400846FFF7A1FB83
:100BC0000190A068FFF79DFB00900199FFF75BFB88
:100BD00002903F2109060298FFF7FCFA0190FFF707
:100BE00097FB80B2A86104212846FFF7A6FF0027E3
:100BF0003846C5E7AC2B000002461068000A000228
:100C0000CBB2184310600020704710B5C046C046F4
:100C100010BD10B5C046C046C046C04610BD10B598
:100C2000C046C04610BD00000E49086A096A01228C
:100C30001207914389180B4A11620B49C9680B4A84
:100C40001140094AD16011460968B0221143064A91
:100C500011601146096AB0221143034A1162014929
:100C60000862704700200040401D02404FFF000016
:100C70000FB410B504A9074B02AA039800F0C4F9F9
:100C8000044602A9002000F0A5FA204610BC08BCCA
:100C900004B01847D511000030B47446641E25789E
:100CA000641CAB4204D3635D5B00E31830BC18479F
:100CB0001D46F8E70EB507460E46154619491AA017
:100CC00001F040FC1749384601F03CFC15491CA0D6
:100CD00001F038FC1349304601F034FC11491AA0E8
:100CE00001F030FC03AC0021601E044601700A21B3
:100CF000601E044601700CE00A212846FFF71EFA28
:100D00003031601E044601700A212846FFF716FAAA
:100D10000546002DF0DC0349204601F013FC00F0ED
:100D20005EFA00005C0000202A2A2A2061737365A5
:100D30007274696F6E206661696C65643A200000A8
:100D40002C2066696C6520002C206C696E65200083
:100D5000F7B50C461646002500F066FE1EE004229C
:100D60002146009800F07EFE0546002D00D116E0D9
:100D70000098001D009022896168009800F072FEC2
:100D8000002D00D10BE0308900994018009002221C
:100D900021460A31009800F065FE00E0DFE700BF61
:100DA00000F040FE2846FEBD37B50C46154600F063
:100DB0003BFE04222146009800F038FE0098001DFA
:100DC000009022896168009800F030FE288900991F
:100DD00040180090022221460A31009800F026FEB9
:100DE00000F020FE01203EBD02E008C8121F08C12D
:100DF000002AFAD170477047002001E001C1121F9C
:100E0000002AFBD17047F7B50D46144600F00CFEE2
:100E100056E000988007800F002822D1042C20DBA8
:100E20002646E017800F80198003020C294600989F
:100E300000F056FE2046E117890F09188910890035
:100E40004D19E117890F091889108900009A89182E
:100E50000091E117890F091889108900611A8CB275
:100E60002EE00098C007C00F00281ED1022C1CDB0A
:100E70002646E00F8019C003020C2946009800F0B6
:100E800012FE2046E10F0918491049004D19E10FE3
:100E9000091849104900009A89180091E10F0918B2
:100EA00049104900611A8CB20AE0012229460098D3
:100EB00000F0E6FD6D1C0098401C0090601E84B29E
:100EC000002CA6D100F0AEFD0120FEBD37B50C46CA
:100ED000154600F0A9FD042221460098FFF793FF74
:100EE0000098001D0090228961680098FFF78BFF31
:100EF0002889009940180090022221460A31009862
:100F0000FFF781FF00F08EFD01203EBDF0B51FB45C
:100F100082B004460D460C9E11480078002801D18D
:100F200007B0F0BD002E01D10020F9E700210846EE
:100F300061406840014300D004E06C2209A10FA089
:100F4000FFF7B8FE009620462946059B049A00F05C
:100F500051FC0746B74201D10120E1E70020DFE75D
:100F6000580000202E2E5C2E2E5C6366735C636638
:100F7000735F44454D4F2E630000000066732021CF
:100F80003D204E554C4C0000F0B51FB482B00446D5
:100F90000D460C9E12480078002801D107B0F0BD24
:100FA000002E01D10020F9E7002108466140684089
:100FB000014300D004E052220AA110A0FFF77AFEFC
:100FC000B0B2009020462946059B049A00F0A2FC8E
:100FD0000746B74201D10120E0E70020DEE700002C
:100FE000580000202E2E5C2E2E5C6366735C6366B8
:100FF000735F44454D4F2E6300000000667320214F
:101000003D204E554C4C0000FFB58DB00F460546B7
:10101000002606E025280AD0109A0F9990476D1CEB
:10102000761C28780028F5D1304611B0F0BD002498
:101030000121674A009400E004436D1C2B780846A8
:10104000203B98401042F7D128782E2815D1042053
:10105000044368786D1C2A280AD101CF6D1C0090CA
:101060000BE000990A225143303940186D1C009062
:101070002878014630390929F3D92878692843D0DE
:1010800006DC0028D0D063280BD0642804D13BE0D4
:1010900073280FD075284CD0109A0F999047761C62
:1010A00094E03878694608720020487202A80190DE
:1010B000012003E0386801900020C0433F1D610714
:1010C0000CD5002400E0641C00998C420FDA8442A5
:1010D000F9DB0199095D0029F5D108E0002400E061
:1010E000641C8442FCDB0199095D0029F8D13619A2
:1010F00007E0019801990078491C0191109A0F9915
:101100009047641EF5D261E00A20019001CF0028CB
:1011100002DA40422D2102E0210504D52B216A4646
:101120001172012103E0E10701D02021F7E70C91C2
:1011300004E00A20019001CF00210C910BA90B9132
:1011400008E00199FEF7E4FF0A460B993032491E88
:101150000B910A700028F4D10B9803A9081A2030CB
:101160000190600701D5009801E0012000900199ED
:10117000884203DD01460198081A00E0002000249F
:10118000009006E002A8109A005D0F999047641C39
:10119000761C0C988442F5DB04E0109A30200F99FD
:1011A0009047761C0099481E00900029F5DC08E065
:1011B0000B980B990078491C0B91109A0F99904746
:1011C000761C0199481E01900029F1DC6D1C28E76E
:1011D000092801000A68531C0B601070704700BF9B
:1011E000FEE710B5044600BF00BF204600F06CFDCE
:1011F000002801D0012010BD0020FCE7FFB587B01A
:101200000C4617461E4600200690079800F0CEFDBB
:101210000546079800F0E4FD0590029468460682B2
:101220000397AC4202D9601B012804D0681C002837
:1012300017D1002C15D102A9079800F0B9FC06902F
:10124000069803281BD12146079800F0B2FD0798A5
:1012500000F02FFF80B201460190079800F0C3FD17
:101260000DE00598281AA04201D2012000E00020DC
:10127000A84204D802A9079800F036FE0690069806
:10128000032802D130460BB0F0BD0020FBE7000080
:10129000FFB587B00C4617461D46002006900798FC
:1012A00000F004FF0646B288F3885A43104632899C
:1012B000911DFEF743FF059001200190059884429F
:1012C0000BD30598844200D204E0FD2212A122A093
:1012D000FFF7F0FC00200BB0F0BD029468460582D9
:1012E000039702A9079800F0D7FC01900198002805
:1012F00005D002A9079800F05BFC069004E002A963
:10130000079800F0F1FD06900698032801D12846C1
:10131000E1E70020DFE70000433A5C47697452656B
:10132000706F7369746F72795C4379636C65466C36
:101330006173685C6379636C65666C6173685C7328
:1013400072635C6379636C655F666C6173685F731D
:10135000797374656D2E630077726974655F696473
:10136000203C2074656D705F6D61785F696400007A
:10137000FFB583B00D4616461C460027009568460B
:10138000048101966946039800F032FD0746032F59
:1013900002D1204607B0F0BD0020FBE7F8B50746B4
:1013A000384600F0BFFB0446002C01D10146F8BDD1
:1013B0000848046001220421204600F05FFF00215C
:1013C000230C0A041A432304C51851410E4628462B
:1013D0003146ECE74C000020F8B505460E4628469D
:1013E000314600F0EAFC0746002F00D004E0BC22A2
:1013F00010A120A0FFF75EFC0024E443384600F073
:10140000EBFC012803D0384600F03EF804462146A4
:10141000384600F0CEFC601C002804D0384600F0AE
:1014200048FE044600E00024A1B2384600F0DBFC90
:101430000120F8BD433A5C4769745265706F736967
:10144000746F72795C4379636C65466C6173685C38
:101450006379636C65666C6173685C7372635C630B
:1014600079636C655F666C6173685F7379737465CB
:101470006D2E630074656D705F6F626A65637420C2
:10148000213D204E554C4C00F1B588B00025ED4370
:10149000089800F00BFE0446002005900690079087
:1014A000208901F0C1FA069021896846818320894C
:1014B000801D0490002003900290002101910026DD
:1014C0004AE000200090A088711C48432268101850
:1014D0000290002731E0A188714308460499FEF785
:1014E00017FE0099401803906A46918B0698FEF704
:1014F00052FE0398059005A9089800F079FC07466C
:10150000032F03D005D00098022802D1059803903C
:1015100015E0002F00D112E00399089800F02EFE8C
:10152000049949004018401E0299884204D200984C
:10153000401CC0B2009000E001E0032FCBD100BFFF
:10154000032F07D10598A84202D8681C002801D1B2
:101550000196059D701C86B2E088B042B1DC681C23
:10156000002834D00395A088694689882268491CE0
:10157000484310180290032625E06A46918B06988E
:10158000FEF709FE0398059005A9089800F030FCC5
:101590000646032E04D10598A84201D9059D02E014
:1015A000002E00D111E00399089800F0E7FD04999E
:1015B00049004018401E0299884203D20398401CFB
:1015C000039000E001E0032ED7D000BF00BF0698D3
:1015D00000F0C4FF284609B0F0BD000070B5054614
:1015E0000E462846314600F0E8FB0446002C00D1A8
:1015F00070BD204600F05FFB002805D00020C043EE
:1016000060600020208205E08322920002A112A0E7
:10161000FFF750FB0120EBE7433A5C4769745265E2
:10162000706F7369746F72795C4379636C65466C33
:101630006173685C6379636C65666C6173685C7325
:1016400072635C6379636C655F666C6173685F731A
:10165000797374656D2E630066616C7365000000BC
:1016600070B505460E462846314600F0A6FB0446F6
:10167000002C01D1401E70BD204600F097FBFAE718
:1016800070B505460E462846314600F096FB0446E6
:10169000002C01D1401E70BD204600F0A1FBFAE7EE
:1016A00070B505460E462846314600F086FB0446D6
:1016B000002C00D170BD204600F03EFBFAE7000090
:1016C000F8B50446A788F817800EC019801180016C
:1016D000381A00D105E0FF2263322AA139A0FFF7B2
:1016E000E9FAA07A00280BD1E088002808D1206808
:1016F000002805D1A088002802D12089002800D028
:1017000005E0FF2265321FA13748FFF7D3FAA07A20
:1017100000280BD0E088002808D02068002805D0D9
:10172000A088002802D02089002802D1002001468C
:10173000F8BD2046FFF755FD002808D02046FFF7EA
:1017400050FDFF227A320FA128A0FFF7B3FA00F074
:101750005DF9002801D10146EAE72046FFF71EFEA9
:1017600005460E4628463146002358405940084356
:1017700001D10146DCE728463146FFF72DFE284619
:101780003146D5E7433A5C4769745265706F7369B7
:10179000746F72795C4379636C65466C6173685CE5
:1017A0006379636C65666C6173685C7372635C63B8
:1017B00079636C655F666C6173685F737973746578
:1017C0006D2E630074656D705F6F626A6563742D62
:1017D0003E736563746F725F73697A652025203686
:1017E00034203D3D20300000102C000066616C73F9
:1017F00065000000F0B51FB484B0144600200390CB
:101800000599049800F0D9FA0290029800F04EFC75
:1018100005460298002806D0601C002803D02989BC
:101820000E98814202D2002009B0F0BDAA88EB8850
:101830005A4310462A89911DFEF780FC06460298FD
:1018400000F0B4FA0746029800F0CAFA0190029834
:1018500000F0C2FA002804D0012808D002281DD1C7
:1018600013E0FF22DE3213A122A0FFF723FAB442D5
:101870000AD3B44200D205E0FF22E5320DA11FA039
:10188000FFF718FA0398CFE709E00198381AA04249
:1018900003D3BC4201D90398C6E700E000BF00BFF4
:1018A0000E9883B22146079A0298FFF761FD0390D4
:1018B0000398B9E7433A5C4769745265706F73697E
:1018C000746F72795C4379636C65466C6173685CB4
:1018D0006379636C65666C6173685C7372635C6387
:1018E00079636C655F666C6173685F737973746547
:1018F0006D2E630066616C73650000007265616443
:101900005F6964203C2074656D705F6D61785F690C
:1019100064000000FEB505460E4614461F46002032
:1019200002902846314600F048FA0190019800F0F4
:10193000BDFB00900198002807D0601C002804D04F
:10194000009801890898814201DA0298FEBD019849
:1019500000F042FA002804D0012808D0022816D14D
:101960000DE0FF22B1320CA11BA0FFF7A3F93A460C
:101970002146089B0198FFF78BFC029008E03A464D
:101980002146089B0198FFF739FC029000E000BF58
:1019900000BF0298DAE70000433A5C476974526579
:1019A000706F7369746F72795C4379636C65466CB0
:1019B0006173685C6379636C65666C6173685C73A2
:1019C00072635C6379636C655F666C6173685F7397
:1019D000797374656D2E630066616C736500000039
:1019E00073B50D46002400BF0BE06002009940185B
:1019F000009000BF0098FEF723FD0028FAD1601C7C
:101A000084B2AC42F1DB01207CBD000004480078C8
:101A1000012800D1704701200149087000BFF9E793
:101A200059000020012070470120704737B50C464F
:101A300015462A4620460099FEF794FB01203EBD3C
:101A400003B500220AE000980078FF2801D00020AA
:101A50000CBD0098401C0090501C82B28A42F2DB00
:101A60000120F5E737B50C4615462A462046009971
:101A7000FEF7A3FB002801D101203EBD0020FCE7BA
:101A8000F7B50C461546002609E021780098FEF7C8
:101A900045FD0098401C0090641C701C86B2AE424C
:101AA000F3DB0120FEBD77B581B00C461546002062
:101AB000009000260FE0207861780902084300902A
:101AC000694609880198FEF781FD0198801C019004
:101AD000A41C701C86B2AE42EDDB012004B070BDC8
:101AE00077B581B00C46154600200090002614E022
:101AF0002078617809020843A17809040843E17855
:101B000009060843009000990198FEF7B7FD019877
:101B1000001D0190241D701C86B2AE42E8DB01203E
:101B200004B070BD70B50646142000F07DFF044679
:101B3000002C00D170BD0C2000F076FF0546002D72
:101B400004D1204600F00AFD0020F3E73068286049
:101B5000B088A880F088E88030892881B07AA8729F
:101B600011480068002807D10F4804600020A060D9
:101B7000E0600E48046009E00C480068C4600B484F
:101B80000068A0600020E060084804600020C043B6
:101B9000606000202082256001220421204600F0A0
:101BA0006DFB60822046C5E744000020480000200D
:101BB000F3B583B00C46002C07D02089012804DB44
:101BC0002068401C002800D005E0FF22803222A1BE
:101BD0003048FFF76FF800200290039800F066FA93
:101BE00005462168039800F0C9FA0646A9883046E0
:101BF000FEF78EFAA98848430190A98801980F182A
:101C00002889801D00900121204600F05FFB608143
:101C10002868B04204D101213046FFF7E1FE07E019
:101C200000983018B84203D301213846FFF7D8FE98
:101C30002A4621463046FFF749F92A4621463046D2
:101C4000FFF786F8002802D10220029001E003206D
:101C50000290029805B0F0BD433A5C476974526542
:101C6000706F7369746F72795C4379636C65466CED
:101C70006173685C6379636C65666C6173685C73DF
:101C800072635C6366735F73797374656D5F6F63B2
:101C90002E630000B42B0000F8B505460C4628461C
:101CA000216800F06BFA07462089861DB1B23846DC
:101CB000FFF7C6FEF8BD10B504462268D18810684B
:101CC000FFF78EFE012010BDF0B5024619480068EE
:101CD00000282CD013689088D5886843156840196F
:101CE000441E14480068C1681EE00868056808685A
:101CF00080880F68FF8878430F683F68C019461EC8
:101D0000B34201D8AC420BD2A54201D89E4207D2C1
:101D1000AB4201D8B44203D29D4203D8A64201D3BC
:101D20000120F0BDC96800BF0029DED100BF00203E
:101D3000F7E700004400002010B50446002C00D155
:101D400010BD2068002804D0206800F007FC0020A7
:101D5000206014480068A04210D113480068A042D7
:101D600005D100200F4908600F49086014E00D49B3
:101D7000E06808600020E16888600DE00A480068BB
:101D8000A04203D10849A068086005E0A168E068A6
:101D9000C860E168A0688860204600F0DFFB012091
:101DA000CEE70000440000204800002001464868BB
:101DB0007047024651600120704730B502460B461D
:101DC0001D04100C2843014694B2488AA04201D158
:101DD000084630BD0020FCE701460868807A70475D
:101DE0000146088A704702461182012070470000B0
:101DF000FEB506460C466068002802D120890128FD
:101E000000DB05E0FF225C321AA129A0FEF752FF99
:101E10003046216800F0B2F90290304600F046F9F1
:101E2000019000250220009019E02146019A0298B5
:101E3000FEF7BAFF0121204600F048FA0746206865
:101E4000401C002801D1002508E06089B84201D17A
:101E500003250BE00020C0432060022500BF694637
:101E60000878411ECAB200920028DED100BF284681
:101E7000FEBD0000433A5C4769745265706F736938
:101E8000746F72795C4379636C65466C6173685CEE
:101E90006379636C65666C6173685C7372635C63C1
:101EA00066735F73797374656D5F6F632E63000093
:101EB0006275666665722D3E646174615F706F69FC
:101EC0006E74657220213D204E554C4C207C7C2048
:101ED0006275666665722D3E646174615F6C656EE5
:101EE000203E3D2031000000F3B585B00D46002DA9
:101EF00007D02889012804DB2868401C002800D06E
:101F000005E0FF22AB3258A16648FEF7D3FE002061
:101F10000490059800F0CAF804462968059800F076
:101F20002DF90746A1883846FEF7F2F8A188064643
:101F30004E432089801D03900020029001900120D3
:101F4000009059480290029801900121284600F023
:101F5000BDF9688103983818401EA1888919884204
:101F60003CD3A28830460299FFF760FDA2889219FF
:101F7000D11B029AD219901BFF22FEF705F9FFF739
:101F800053FD01213046FFF72BFDA2883046029910
:101F9000FEF739FFFFF746FDA28890190299FFF777
:101FA00045FDBA1B03981018A288811AFF220298D7
:101FB000FEF7EAF8FFF738FDA18888190121FFF73D
:101FC0000FFDA28890190299FEF71DFF22462946AF
:101FD0003846FEF77BFFFFF725FD33E0A088009928
:101FE000484382B230460299FFF720FD0298C0199B
:101FF000801B0190FF2203990198FEF7C5F8042287
:1020000029460198FEF7AEF80198001D01902A8933
:1020100069680198FEF7A6F8218901984018019097
:10202000AA7A01980270E97A4170FFF7FDFC304608
:102030000099FFF7D5FCA28830460299FEF7E3FE2F
:10204000FFF7F0FCA0880099484382B2304602991D
:10205000FFF708FD002802D10220049001E00320D0
:102060000490049807B0F0BD433A5C476974526528
:10207000706F7369746F72795C4379636C65466CD9
:102080006173685C6379636C65666C6173685C73CB
:1020900072635C6366735F73797374656D5F6F639E
:1020A0002E630000B42B0000F400002001460868F5
:1020B0007047F0B585B0044600200490256860683C
:1020C000401C002801D105B0F0BD2889801D039077
:1020D000A988EA88514308460399FEF719F806468D
:1020E0006168481C3146FEF713F880B202906168BF
:1020F000481C3146FEF70CF888B20190029801287E
:1021000005DB0298012806D10198002803D16068F8
:10211000401C049030E0E888012826DD20466168F4
:1021200000F02CF80399401800906168481C314673
:10213000FDF7EEFF002901D1049615E0A98800986B
:10214000FDF7E6FF401CA98848432968471A38462E
:102150000399FDF7DDFF371A7F1E6168481C314681
:10216000FDF7D6FF7818049006E00198002801D109
:10217000304600E0019804900498A4E7F3B583B0DA
:102180000C46601C002800D004E0C72221A130A02A
:10219000FEF790FD039806683089871DB188F288A4
:1021A000514308463946FDF7B3FF0290601C02997F
:1021B000FDF7AEFF85B2601C0299FDF7A9FF88B25A
:1021C000019000200090012D03DB06D1019800282A
:1021D00003D120467843009015E0012D08DB0198DB
:1021E000002805D002986843201A784300900AE03E
:1021F000012D08DD0198002805D1681E0299484389
:10220000201A7843009031680098081800900098D0
:1022100005B0F0BD433A5C4769745265706F7369ED
:10222000746F72795C4379636C65466C6173685C4A
:102230006379636C65666C6173685C7372635C631D
:1022400066735F73797374656D5F6F632E630000EF
:1022500074656D705F696420213D204346535F4380
:102260004F4E4649475F4E4F545F4C494E4B454495
:102270005F444154415F494400000000F0B503460B
:102280000C460021002514E01D785B1C280241400B
:1022900000200CE00126F6030E40002E04D04E0074
:1022A000094F7E40B1B201E04E04310C401C0828B9
:1022B000F0DB2046641E0028E6D1012A02D1C84383
:1022C00080B2F0BD0846FCE721100000F3B581B0F4
:1022D00005462889002803D06868002800D004E05B
:1022E000662219A128A0FEF7E5FC2E462889071DC5
:1022F0000024002000901AE02889B84200D16E68BE
:102300003078761C009000980002444000200CE0D9
:102310000121C9032140002904D06100274A51400E
:102320008CB201E061040C0C401C0828F0DB38463C
:102330007F1E0028E0D10298012802D1E04380B23C
:10234000FEBD2046FCE70000433A5C4769745265D5
:10235000706F7369746F72795C4379636C65466CF6
:102360006173685C6379636C65666C6173685C73E8
:1023700072635C6366735F73797374656D5F7574A4
:10238000696C732E63000000646174612D3E6461AA
:1023900074615F6C656E20213D203020262620640C
:1023A0006174612D3E646174615F706F696E746504
:1023B0007220213D204E554C4C00000021100000A1
:1023C00010B50A460146002900D110BD02E00023E5
:1023D0000B70491C1346521E002BF8D100BFF4E7C6
:1023E00070B50546114812494861002088610520F2
:1023F000086110E000200E4988617D21C9000D4868
:102400000068FDF785FE012109060C1A00BF084887
:102410008069A042FBD828466D1E0028EAD10448F6
:102420000069400840000249086170BDFFFFFF00DD
:1024300000E000E00000002010B5024903C9FFF7EA
:10244000CDF810BD500000200EB5144800780128CA
:1024500000D10EBD0020009001900290022168463C
:102460008172912040020090090268468180022119
:10247000C1801B210181FFF723F9094A03C20848E3
:1024800001684068002359405840014301D10020B1
:10249000DFE701200149087000BFDAE7580000209B
:1024A0005000002010B5024903C9FFF7D9F810BD4C
:1024B0005000002010B5024903C9FFF7E1F810BD34
:1024C0005000002010B5024903C9FFF7E9F810BD1C
:1024D00050000020F8B505460E46144633462A46FD
:1024E0000549009403C9FEF711FD0746002F01D0EE
:1024F0002046F8BD0020FCE750000020F8B5054656
:102500000E46144633462A460549009403C9FEF791
:102510003BFD0746002F01D02046F8BD0020FCE718
:102520005000002070B505460C460548844203D192
:10253000284600F0AFFA70BD0020C043FBE7000062
:102540005C00002070B50D46044602E02946FFF706
:10255000E9FF2078641C0028F8D170BD10B5002870
:1025600023D0124B0022001F196803E0814203D8D8
:102570000A4649680029F9D1002A0AD01368841A4A
:102580009C4204D1006818181060104602E05060A8
:1025900000E01860002907D002680B1A934203D1AB
:1025A0000B68D21802604968416010BD60000020CD
:1025B00008B500260027002400F0C8FA00F080FAD1
:1025C00000BFFFF741FF92A19E48FEF751FB9D48D7
:1025D000FDF7ECFD401C85B229469A4800F05CFAF4
:1025E000FFF760FF0646FFF765FF07463B463246AA
:1025F00095A19448FEF73CFB9248FDF7D7FD401C9F
:1026000085B229468F4800F047FA002400BF002C0D
:1026100052D094A18B48FEF72BFB8A48FDF7C6FDEC
:10262000401C85B22946874800F036FA002528E08C
:102630001C219B48FDF7AFFD1B229A499A48006870
:10264000FFF75CFFFFF72EFF0646FFF733FF074655
:102650003B46324695A17B48FEF70AFB7948FDF7D9
:10266000A5FD401C80B201460090764800F014FAA7
:102670008D480068401C8C4908601E2D00D100BFA9
:102680006D1C3C2DD4DB1B228F493B20FFF736FF0E
:102690001B228D491F20FFF731FF1B228A492E2064
:1026A000FFF72CFF1B2288492320FFF727FF1B225F
:1026B00085493020FFF722FF002400BF002C4AD0BC
:1026C00082A16048FEF7D4FA5E48FDF76FFD401C1A
:1026D00085B229465B4800F0DFF9FFF7E3FE0646C6
:1026E000FFF7E8FE07463B46324657A15548FEF73E
:1026F000BFFA5448FDF75AFD401C85B2294651489F
:1027000000F0CAF9F51B24E01C216548FDF743FDE4
:1027100064214C48FDF73FFD6248FDF747FD024646
:102720005F4900902846FFF7D5FE00205C49C87637
:102730000B462A4673A14348FEF79AFA4148FDF733
:1027400035FD401C80B2014600903E4800F0A4F9DF
:102750006D1CB542D8D9002400BF002C22D06FA137
:102760003848FEF785FA3748FDF720FD401C85B252
:102770002946344800F090F9FFF75EFE002804D0A7
:1027800075A13048FEF774FA03E078A12D48FEF7F2
:102790006FFA2C48FDF70AFD401C85B229462948EE
:1027A00000F07AF9002400BF002C22D074A1254843
:1027B000FEF75EFA2348FDF7F9FC401C85B2294676
:1027C000204800F069F9FFF77DFE002804D07BA1C6
:1027D0001C48FEF74DFA03E07EA11A48FEF748FABE
:1027E0001848FDF7E3FC401C85B22946154800F067
:1027F00053F97EA11348FEF73BFA1248FDF7D6FCC9
:10280000401C85B229460F4800F046F900BFFEE79C
:102810002323232320494E49542D2D2D2D2D2D2D9D
:102820002D2D2D2D2D2D2D2D2D2D2D2D2D2D2D2DD8
:102830002D2D2D2D2D2D2D2D2D2D2D2D2D2D2D0DE8
:102840000A000000840000204944203D2025643A0D
:102850002056414C49445F4944203D202564200DC9
:102860000A000000232323232057524954452046C1
:102870004C4153482D2D2D2D2D2D2D2D2D2D2D2D14
:102880002D2D2D2D2D2D2D2D2D2D2D2D2D2D2D2D78
:102890002D2D2D2D2D2D2D2D2D2D0D0A000000005F
:1028A000680000200C000020080000204944203D62
:1028B0002025643B2056414C49445F4944203D203B
:1028C0002564200D0A000000270000202323232375
:1028D000205245414420464C4153482D2D2D2D2D4D
:1028E0002D2D2D2D2D2D2D2D2D2D2D2D2D2D2D2D18
:1028F0002D2D2D2D2D2D2D2D2D2D2D2D2D2D2D2D08
:102900002D0D0A004944203D2025642C20424F44CF
:10291000593A202573200D0A0000000023232323A9
:1029200020434C45415220464C4153482D2D2D2DDE
:102930002D2D2D2D2D2D2D2D2D2D2D2D2D2D2D2DC7
:102940002D2D2D2D2D2D2D2D2D2D2D2D2D2D2D2DB7
:102950002D2D0D0A000000003E3E3E20434C454117
:102960005220535543434553530D0A003E3E3E20EB
:10297000434C454152204641494C5552450D0A00B1
:10298000232323232044454C455445204F424A45A8
:1029900043542D2D2D2D2D2D2D2D2D2D2D2D2D2D2A
:1029A0002D2D2D2D2D2D2D2D2D2D2D2D2D2D2D2D57
:1029B0002D2D2D2D2D2D2D2D0D0A00003E3E3E20BE
:1029C00044454C45544520535543434553530D0A04
:1029D000000000003E3E3E2044454C455445204604
:1029E00041494C5552450D0A000000002323232382
:1029F00020454E44204F4620544553542D2D2D2D17
:102A00002D2D2D2D2D2D2D2D2D2D2D2D2D2D2D2DF6
:102A10002D2D2D2D2D2D2D2D2D2D2D2D2D2D2D2DE6
:102A20002D2D0D0A00000000F0B50B30C108C900C3
:102A3000144F0026144A0FE003688B420BD38B42DD
:102A400005D95C1A4318456830C3083B00E0436869
:102A5000136002C004E0021D10680028ECD130466B
:102A6000002803D13868002801D00020F0BD064AB4
:102A700006481060064A121AD208D20044C001204B
:102A80003860D7E76400002060000020FC020020CE
:102A9000F806002000BE704770B504460D460026BB
:102AA0000AE0217801208007FEF7A6F8641C0120C7
:102AB000FFF796FC701C86B2AE42F2DB70BD0000E0
:102AC0001FB510216846FFF77BFC01210020FDF7B0
:102AD000B1FF402168460170002141804B21C901AE
:102AE0000391012149028180FDF794FF029069461C
:102AF00001208007FEF736F8002101208007FEF74D
:102B000011F801218807FEF70DF800210120800748
:102B1000FEF71DF801218807FEF719F80A4800782A
:102B200001280FD0002008494860FF200130FFF73E
:102B30007BFF0549486048680C21FDF72CFB01200C
:102B4000014908701FBD0000E80000201CB50721E6
:102B50006846FFF735FC01211C20FDF76BFF0021C3
:102B6000684641706A4609210020FDF7DFFD012219
:102B700009210020FDF728FE0121684641706A46C0
:102B80000A210020FDF7D2FD01220A210020FDF7D5
:102B90001BFE1CBD00093D0000127A000024F40059
:102BA0004086510100366E0100800096040000004E
:102BB0000300000062756666657220213D204E5557
:102BC0004C4C202626206275666665722D3E646137
:102BD00074615F6C656E203E3D20312026262062A8
:102BE00075666665722D3E646174615F696420215B
:102BF0003D204346535F434F4E4649475F4E4F5437
:102C00005F4C494E4B45445F444154415F49440049
:102C10002874656D705F6F626A6563742D3E7374AE
:102C2000727563745F7479706520213D204346534B
:102C30005F46494C4553595354454D5F4F424A45B1
:102C400043545F545950455F4E554C4C29207C7C71
:102C5000202874656D705F6F626A6563742D3E73C2
:102C60006563746F725F636F756E7420213D2030F1
:102C700029207C7C202874656D705F6F626A6563B3
:102C8000742D3E616464725F68616E646C652021BE
:102C90003D203029207C7C202874656D705F6F6238
:102CA0006A6563742D3E736563746F725F73697ACE
:102CB0006520213D203029207C7C202874656D70A2
:102CC0005F6F626A6563742D3E646174615F7369EE
:102CD0007A6520213D20302900000000FC2C0000F6
:102CE0000000002068000000E80D0000642D0000D6
:102CF00068000020900A0000F80D000000093D0067
:102D00000000000000000000616263646566670007
:102D100000000000000000000000000000000000B3
:102D20000000007120207720206520206120207382
:102D300020206400000000000000000000000000EF
:102D40000000000000000000000000000000000083
:102D50000000000000000000000000000000000073
:042D6000000000006F
:04000005000000C136
:00000001FF
